:020000020000FC
:0C0000000C9433000C949C000C94B6008F
:10005C000C94D3000407090201000FEF0DBF01E25D
:10006C000EBF3324442443940FEF07B903BB15E5AB
:10007C0021E318B924BB02E0009369000DB30160C1
:10008C0002600DBB00E004BD02E005BD01E0009381
:10009C006E000FEF00BB01B9002701BB02B908E3EA
:1000AC0015D124D13DD108E311D120D130D108E3B1
:1000BC000DD11CD108E30AD119D108E007D116D112
:1000CC0001E004D113D106E001D110D10EE0FED035
:1000DC000DD110E3012F01D109D115E6012FFDD06F
:1000EC0005D11CE6012FF9D001D1012FF6D0FED09D
:1000FC001FE6012FF2D0FAD01AE0012FEED0F6D085
:10010C0010E3012FEAD0F2D015E6012FE6D0EED0A5
:10011C001CE6012FE2D0EAD0012FDFD0E7D01FE69A
:10012C00012FDBD0E3D078940C94FB000F930FB726
:10013C000F938F939F9300910402013049F08091AB
:10014C000202909105029F5F981714F4CC27DD27CB
:10015C00809305029F918F910F910FBF0F9118956E
:10016C000F930FB70F938F939F930091040201305D
:10017C0061F080910202909106029F5F98172CF417
:10018C006E9605E4002FA9D0B1D0809306029F9102
:10019C008F910F910FBF0F9118950FB70F93DF939E
:1001AC00CF939F938F9380910002909101020196BF
:1001BC008E3003E0900771F480910202909103025B
:1001CC0001968093020290930302309200023092C7
:1001DC00010204C080930002909301029F918F91C1
:1001EC00CF91DF910F910FBF189543E0E0E6F0E05F
:1001FC00649151E04FD021E030E001E00093040223
:10020C00C2E3D0E001E062D071D0042F005DA09178
:10021C000202B0910302461719F0A431C4F318C0BE
:10022C00002700930402A217B30749F44F9301E08F
:10023C004012415041942ED04F912F5F3F4FAC173D
:10024C00BD072CF3462F3196649101E00093040214
:10025C003092020230920302C2E3D0E021E030E09F
:10026C00413039F04A3039F064172CF046170CF055
:10027C0003C051E001C05FEFAA27BB27450F01E087
:10028C0025D034D0042F005D002F27D02FD002D0E2
:10029C00BECFFFCFCF93DF934F93FF92AF93BF931C
:1002AC00FF24AA27BB27F41641F0AA0FA39508F048
:1002BC0002C0BB0FB395F394F6CFB4BBA8B9BF91F2
:1002CC00AF91FF904F91DF91CF91089501BB1FD05B
:1002DC00169A1DD016981BD0089501BB179A17D0EB
:1002EC00169A15D0169813D0179808950F930027C7
:1002FC0000BB01BB159A0BD0169A09D00FB11698FA
:10030C0007FDF9CF15980FEF00BB0F9108958F9350
:10031C009F939FE08CE90197F1F79F918F9108953E
:0C032C00F6DFF5DFF4DFF3DFF2DF089509
:00000001FF
