:020000020000FC
:0C0000000C9432000C942A010C9447016F
:10005C000C9460010A0001004FEF4DBF41E24EBF0E
:10006C003E7F32603B7F377F3F7E3F7D3F7B3F77DC
:10007C0001E0332444244394AA24BB24309200028C
:10008C0040EF5FE040930A0140930B0100004FEFFB
:10009C0047B943BB44274AB940E14DB94AE24093C2
:1000AC0069004DB34160426044604DBB40E044BDCB
:1000BC0042E045BD41E040936E0041E04093910029
:1000CC0041E2409390004FEF40BB41B9442741BB04
:1000DC0042B948B848E3F6D105D21ED248E3F2D172
:1000EC0001D211D248E3EED1FDD148E3EBD1FAD1E4
:1000FC0048E0E8D1F7D141E0E5D1F4D146E0E2D1D6
:10010C00F1D14EE0DFD1EED141E0DCD1EBD14F9318
:10011C0043E4DFD1E7D14F914F9345E7DAD1E2D1F8
:10012C004F914F9342E7D5D1DDD14F914F9342E799
:10013C00D0D1D8D14F914F9345E6CBD1D3D14F915C
:10014C004F934EE6C6D1CED14F914F9344E7C1D1D8
:10015C00C9D14F914F9340E2BCD1C4D14F914F9331
:10016C0046E6B7D1BFD14F914F934CE6B2D1BAD13D
:10017C004F914F934FE6ADD1B5D14F914F934FE681
:10018C00A8D1B0D14F914F9342E7A3D1ABD14F91AE
:10019C004F935F9342E0423039F050E85060452F66
:1001AC0091D1A0D10C94DF0050EC5060452F8AD136
:1001BC0099D15F914F914F934EE48BD193D14F9145
:1001CC004F9345E686D18ED14F914F9348E781D11D
:1001DC0089D14F914F9344E77CD184D14F914F9368
:1001EC0040E277D17FD14F914F9343E772D17AD1CF
:1001FC004F914F9344E76DD175D14F914F934FE68B
:10020C0068D170D14F914F9340E763D16BD14F912F
:10021C004F935F9342E0423039F050E85D60452FD8
:10022C0051D160D10C941F0150EC5D60452F4AD127
:10023C0059D15F914F914F9341E54BD153D14F9190
:10024C00EFD178940C9486014F93432F4170413039
:10025C004F9199F44F93432F487048304F9169F068
:10026C0050910F02503049F454E650930F02CC27B2
:10027C00DD27C0931102D09312025F915FBF5F9193
:10028C0018955F935FB75F934F93432F4170413045
:10029C004F9161F450911002503041F454E6509358
:1002AC0010026E96C0931102D09312025F915FBF41
:1002BC005F9118954F934FB74F939F938F93809166
:1002CC000B0290910C0201968D3043E0940771F46F
:1002DC0080910D0290910E02019680930D029093E5
:1002EC000E0230920B0230920C0204C080930B026F
:1002FC0090930C029F918F914F914FBF4F911895F6
:10030C004F935F9341E0423039F050E85E60452FE7
:10031C00D9D0E8D00C94970150EC5E60452FD2D028
:10032C00E1D05F914F91602F92D14F935F9342E058
:10033C00423039F050E85A60452FC4D0D3D00C94D9
:10034C00AC0150EC5A60452FBDD0CCD05F914F9191
:10035C00612F7DD14F935F9342E0423039F050E8EA
:10036C005F60452FAFD0BED00C94C10150EC5F60E4
:10037C00452FA8D0B7D05F914F916091000267D103
:10038C00D2D12A2DDAD04F93432F417041304F9167
:10039C0009F42FC010E040910002403039F0109168
:1003AC000102011729F43160386023C00C948601D6
:1003BC000CF014F4326002C03D7F00C080910D023D
:1003CC0090910E02843194F330920D0230920E0211
:1003DC004F93432F427042304F9109F005C04AE0D1
:1003EC00041303951DD18CCF41E004130A9518D149
:1003FC0087CF4F93432F487048304F9169F04F93FC
:10040C00432F447044304F91F1F04F93432F407180
:10041C0040314F9181F153C003D14F934AE2409345
:10042C009A00442740939B004F9180910D0290912C
:10043C000E028A300CF464CF30920D0230920E0210
:10044C00377F34605DCF4F9340E040939A00442750
:10045C0040939B004F9180910D0290910E02682F5A
:10046C003FD18E310CF44CCF30920D0230920E02F3
:10047C003B7F306145CFD4D04F934AE840939A00EC
:10048C00442740939B004F9180910D0290910E0256
:10049C008A300CF435CF30920D0230920E023F7E32
:1004AC003E7F4F9340E040939A00442740939B003B
:1004BC004F91409100024A954093000221CF4CECA1
:1004CC0048B9FDCF41BB1FD0169A1DD016981BD032
:1004DC00089541BB179A17D0169A15D0169813D0B9
:1004EC00179808950F93002700BB01BB159A0BD0EA
:1004FC00169A09D00FB1169807FDF9CF15980FEF82
:10050C0000BB0F9108958F939F939BE084EB019711
:10051C00F1F79F918F910895F6DFF5DFF4DFF3DFAC
:10052C00F2DF0895F9DFF8DFF7DFF6DFF5DFF4DF50
:10053C00F3DFF2DFF1DFF0DF18955F935FB75F93C6
:10054C007F920F931F932F933F934F936F936F93C0
:10055C007F93AF93BF93A1E0B2E060910002AA2415
:10056C002B3014F00C940503213014F40C94050377
:10057C00772460910002021711F40C940503A22E4B
:10058C004F93432F427042304F9109F018C02017FF
:10059C005CF0761659F14C91241781F040F140171C
:1005AC0030F111967394F5CF761601F14C91241716
:1005BC0031F1401720F011967394F6CF20C002173A
:1005CC005CF0761699F04C914217C9F080F0041744
:1005DC0070F011967394F5CF761641F04C9142174A
:1005EC0071F00417A0F211967394F6CF00C06395C6
:1005FC00671529F04C912D93242F7394F9CF6093A8
:10060C000002BF91AF917F916F916F914F913F918C
:10061C002F911F910F917F905F915FBF5F91089514
:10062C000F937F92AF93BF937724AA27BB277016A3
:10063C0041F0AA0FA39508F002C0BB0FB3957394B9
:10064C00F6CFA8B9BF91AF917F900F9108957F928B
:10065C008F929F920F931F932F933F934F936F9370
:10066C007F938F939F93EF93FF937727E0E6F0E0D0
:10067C0040E38824992452E0951619F100C00591A5
:10068C00159180E090E0003041F06017710720F088
:10069C00601B710B0196F7CF9B01B90193948030CD
:1006AC00742E780E4F93472D14DF1CDF4F918394DB
:1006BC00E2CF831401F34F9340E30BDF13DF4F9131
:1006CC00DACFFF91EF919F918F917F916F914F9125
:1006DC003F912F911F910F919F908F907F90089534
:1006EC004F934FB74F930F936F93679508F010F498
:1006FC0097DF03C00A9594DF00C06F910F914F9163
:10070C004FBF4F9108954F934FB74F936F9367958A
:10071C0008F010F4119A02C0119800C06F914F911B
:10072C004FBF4F9108950F931F932F933F934F9368
:10073C005F936F937F933FEE1127AA24143069F1D6
:10074C0030930B014FEF4A95F1F7609109016F70EF
:10075C006F3059F021E00027043039F0562F522326
:10076C0041F00395220F0C94B203330F13950C94A4
:10077C00A403133091F0033039F0602F660F600F33
:10078C00610F6F5F0C94D203103029F011306AE0C6
:10079C0019F00C94D30301C0A62EA31044BA7F9178
:1007AC006F915F914F913F912F911F910F910895F0
:00000001FF
