:020000020000FC
:0C0000000C9432000C943D010C9445015E
:04005C000C944D01B2
:040050000C94730198
:100060000A0001004FEF4DBF41E24EBF4F934D2DAF
:100070004E7FD42E4F914F934D2D4260D42E4F91F1
:100080004F934D2D4B7FD42E4F914F934D2D477F46
:10009000D42E4F914F934D2D4F7ED42E4F914F9391
:1000A0004D2D4F7DD42E4F914F934D2D4F7BD42E00
:1000B0004F914F934D2D4F77D42E4F9101E0332424
:1000C000442443945524AA244FEFB42EC42E3092D6
:1000D000000240EF5FE040930A0140930B010000F3
:1000E0004FEF47B943BB44274AB940E14DB94AE213
:1000F000409369004DB34160426044604DBB40E0B5
:1001000044BD42E045BD41E040936E0040E0409375
:10011000800042E04093810041E240936F0041E063
:100120004093910041E2409390004FEF40BB41B9B2
:10013000442741BB42B948E326D235D24ED248E3E8
:1001400022D231D241D248E31ED22DD248E31BD273
:100150002AD248E018D227D241E015D224D246E074
:1001600012D221D24EE00FD21ED241E00CD21BD2CD
:100170004F9343E40FD217D24F914F9345E70AD2E2
:1001800012D24F914F9342E705D20DD24F914F9328
:1001900042E700D208D24F914F9345E6FBD103D2FC
:1001A0004F914F934EE6F6D1FED14F914F9344E7D6
:1001B000F1D1F9D14F914F9340E2ECD1F4D14F916D
:1001C0004F9346E6E7D1EFD14F914F934CE6E2D102
:1001D000EAD14F914F934FE6DDD1E5D14F914F9347
:1001E0004FE6D8D1E0D14F914F9342E7D3D1DBD145
:1001F0004F914F935F9342E0423039F050E85060A6
:10020000452FC1D1D0D10C940A0150EC5060452F3C
:10021000BAD1C9D15F914F914F934EE4BBD1C3D1B5
:100220004F914F9345E6B6D1BED14F914F9348E7DA
:10023000B1D1B9D14F914F9344E7ACD1B4D14F91E3
:100240004F9340E2A7D1AFD14F914F9343E7A2D153
:10025000AAD14F914F9344E79DD1A5D14F914F9390
:100260004FE698D1A0D14F914F9340E793D19BD1C6
:100270004F9137D278940C94BA014F934D2D44701E
:1002800044304F9109F4BB2418954F934D2D407184
:1002900040314F9109F4CC2418954F934FB74F93A9
:1002A0009F938F9380910B0290910C0201968D3059
:1002B00043E0940771F480910D0290910E02019633
:1002C00080930D0290930E0230920B0230920C023A
:1002D00004C080930B0290930C029F918F914F91D9
:1002E0004FBF4F9118954F934FB74F93AF93BF9315
:1002F0004FEFB416D9F043E0B41614F4B39416C01B
:100300004F934D2D447044304F9171F44F934D2DC8
:100310004B7FD42E4F914F934D2D4061D42E4F9152
:1003200030920D0230920E024FEFB42E4FEFC416F2
:10033000D9F043E0C41614F4C39416C04F934D2D66
:10034000407140314F9171F44F934D2D4F7ED42E1B
:100350004F914F934D2D4860D42E4F9130920D0206
:1003600030920E024FEFC42EBF91AF914F914FBF0D
:100370004F9118954F935F9341E0423039F050E828
:100380005E60452F00D10FD10C94CB0150EC5E6024
:10039000452FF9D008D15F914F91602FBAD14F937B
:1003A0005F9342E0423039F050E85A60452FEBD07D
:1003B000FAD00C94E00150EC5A60452FE4D0F3D011
:1003C0005F914F91612FA5D14F935F9342E04230EF
:1003D00039F050E85E60452FD6D0E5D00C94F50199
:1003E00050EC5E60452FCFD0DED05F914F91609191
:1003F0000D026695669566958CD102D22A2DFED0A7
:100400004F934D2D417041304F9109F440C069D157
:1004100010E040910002403079F010910102011784
:1004200069F44F934D2D4160D42E4F914F934D2D34
:100430004860D42E4F912BC00C94BA010CF034F4C8
:100440004F934D2D4260D42E4F9106C04F934D2DAA
:100450004D7FD42E4F9100C080910D0290910E02DD
:10046000843154F330920D0230920E024F934D2D91
:10047000427042304F9109F005C04AE004130395E1
:1004800030D178CF41E004130A952BD173CF4F932D
:100490004D2D487048304F9169F04F934D2D447069
:1004A00044304F9131F14F934D2D407140314F9178
:1004B000F9F166C077D14F934AE240939A004427FE
:1004C00040939B004F9180910D0290910E028A30D3
:1004D0000CF450CF30920D0230920E024F934D2DFE
:1004E000477FD42E4F914F934D2D4460D42E4F9182
:1004F00041CF4F9340E040939A00442740939B00A4
:100500004F9180910D0290910E024CD182330CF4E8
:1005100031CF30920D0230920E024F934D2D4B7F12
:10052000D42E4F914F934D2D4061D42E4F9122CF19
:1005300039D14F934AE840939A00442740939B0057
:100540004F9180910D0290910E028A300CF412CFDF
:1005500030920D0230920E024F934D2D4F7ED42ECD
:100560004F914F934D2D4E7FD42E4F914F9340E09E
:1005700040939A00442740939B004F9184D1FACE38
:100580004CEC48B9FDCF41BB1FD0169A1DD0169830
:100590001BD0089541BB179A17D0169A15D01698FC
:1005A00013D0179808950F93002700BB01BB159A2D
:1005B0000BD0169A09D00FB1169807FDF9CF1598F0
:1005C0000FEF00BB0F9108958F939F9390E084E20B
:1005D0000197F1F79F918F910895F6DFF5DFF4DF32
:1005E000F3DFF2DF0895F9DFF8DFF7DFF6DFF5DF9D
:1005F000F4DFF3DFF2DFF1DFF0DF18955F935FB731
:100600005F937F920F931F932F933F934F936F931B
:100610006F937F93AF93BF93A1E0B2E0609100022C
:10062000AA242B3014F00C946003213014F40C94A1
:100630006003772460910002021711F40C946003A8
:10064000A22E4F934D2D427042304F9109F018C0A9
:1006500020175CF0761659F14C91241781F040F187
:10066000401730F111967394F5CF761601F14C9145
:10067000241731F1401720F011967394F6CF20C063
:1006800002175CF0761699F04C914217C9F080F091
:10069000041770F011967394F5CF761641F04C91D3
:1006A000421771F00417A0F211967394F6CF00C0B0
:1006B0006395671529F04C912D93242F7394F9CFEE
:1006C00060930002BF91AF917F916F916F914F91B5
:1006D0003F912F911F910F917F905F915FBF5F912D
:1006E00008950F937F92AF93BF937724AA27BB27D8
:1006F000701641F0AA0FA39508F002C0BB0FB39586
:100700007394F6CFB4BBA8B9BF91AF917F900F910E
:1007100008957F928F929F920F931F932F933F93F1
:100720004F936F937F938F939F93EF93FF937727CD
:10073000E0E6F0E040E38824992452E0951619F1B0
:1007400000C00591159180E090E0003041F0601705
:10075000710720F0601B710B0196F7CF9B01B90167
:1007600093948030742E780E4F93472D13DF1BDF48
:100770004F918394E2CF831401F34F9340E30ADF58
:1007800012DF4F91DACFFF91EF919F918F917F917F
:100790006F914F913F912F911F910F919F908F904B
:1007A0007F9008954F934FB74F930F934F934D2DD5
:1007B000407240324F9109F007C093DF4F934D2DA7
:1007C0004F7DD42E4F9107C00A958BDF4F934D2D4F
:1007D0004062D42E4F910F914F914FBF4F9108958A
:1007E0004F934FB74F936F93679508F010F4119A9A
:1007F00002C0119800C06F914F914FBF4F91089563
:100800000F931F932F933F934F935F936F937F9318
:100810003FEE1127AA24143069F130930B014FEFFA
:100820004A95F1F7609109016F706F3059F021E03E
:100830000027043039F0562F522341F00395220F40
:100840000C941904330F13950C940B04133091F08E
:10085000033039F0602F660F600F610F6F5F0C94EB
:100860003904103029F011306AE019F00C943A0480
:1008700001C0A62E7F916F915F914F913F912F9173
:100880001F910F910895EF93FF934F935F936F9391
:100890007F937F92E1E0F2E040910002E40FF31DCC
:1008A00031977724662740910002741631F07081E9
:1008B0006083672F73943197F6CF409100024A9579
:1008C000409300027F907F916F915F914F91FF91D4
:0408D000EF91089507
:00000001FF
