:020000020000FC
:0C0000000C9432000C943F010C9447015A
:04005C000C9461019E
:040050000C94870184
:100060000A0001004FEF4DBF41E24EBF4F934D2DAF
:100070004E7FD42E4F914F934D2D4260D42E4F91F1
:100080004F934D2D4B7FD42E4F914F934D2D477F46
:10009000D42E4F914F934D2D4F7ED42E4F914F9391
:1000A0004D2D4F7DD42E4F914F934D2D4F7BD42E00
:1000B0004F914F934D2D4F77D42E4F9101E0332424
:1000C000442443945524AA244FEFB42EC42E3092D6
:1000D000000240EF5FE040930A0140930B010000F3
:1000E0004FEF47B943BB44274AB940E14DB94AE213
:1000F000409369004DB34160426044604DBB40E0B5
:1001000044BD42E045BD41E040936E0040E0409375
:10011000800042E04093810041E240936F0041E063
:100120004093910041E2409390004FEF40BB41B9B2
:10013000442741BB42B948E3A6D4B5D4CED448E362
:10014000A2D4B1D4C1D448E39ED4ADD448E39BD467
:10015000AAD448E098D4A7D441E095D4A4D446E0EA
:1001600092D4A1D44EE08FD49ED4119A41E08BD486
:100170009AD44F9343E48ED496D44F914F9345E74E
:1001800089D491D44F914F9342E784D48CD44F912A
:100190004F9342E77FD487D44F914F9345E67AD46B
:1001A00082D44F914F934EE675D47DD44F914F93A7
:1001B00044E770D478D44F914F9340E26BD473D41A
:1001C0004F914F9346E666D46ED44F914F934CE6D1
:1001D00061D469D44F914F934FE65CD464D44F916E
:1001E0004F934FE657D45FD44F914F9342E752D489
:1001F0005AD44F9111984F935F9342E0423039F0B7
:1002000050E85060452F3FD44ED40C940C0150EC74
:100210005060452F38D447D45F914F914F934EE4AF
:1002200039D441D44F914F9345E634D43CD44F91C7
:100230004F9348E72FD437D44F914F9344E72AD4B4
:1002400032D44F914F9340E225D42DD44F914F9308
:1002500043E720D428D44F914F9344E71BD423D4B1
:100260004F914F934FE616D41ED44F914F9340E7D2
:1002700011D419D44F91B5D478940C9405024F93AE
:100280004D2D447044304F9109F4BB2418954F9381
:100290004D2D407140314F9169F04F934D2D447079
:1002A00044304F9149F04F934D2D407840384F9155
:1002B00029F006C0CC2404C0CC2402C0CC2400C049
:1002C00018954F934FB74F939F938F9380910B0245
:1002D00090910C0201968D3043E0940771F4809167
:1002E0000D0290910E02019680930D0290930E02E2
:1002F00030920B0230920C0204C080930B02909358
:100300000C029F918F914F914FBF4F9118954F9332
:100310004FB74F93AF93BF934427451509F002C0E1
:10032000539401C05A944FEFB416D9F043E0B41679
:1003300014F4B39416C04F934D2D447044304F9134
:1003400071F44F934D2D4B7FD42E4F914F934D2DE4
:100350004061D42E4F9130920D0230920E024FEF39
:10036000B42E4FEFC41609F44AC043E0C41614F487
:10037000C39445C04F934D2D407140314F9169F06A
:100380004F934D2D407840384F91F9F04F934D2DBC
:10039000447044304F9181F02FC04F934D2D4F7ECC
:1003A000D42E4F914F934D2D4860D42E4F913092C3
:1003B0000D0230920E0220C04F934D2D4068D42E76
:1003C0004F914EE24093690017C04F934D2D4F77E8
:1003D000D42E4F914F934D2D4B7FD42E4F9144BA35
:1003E0004F934D2D4061D42E4F914AE240936900C6
:1003F00030920D0230920E0211984FEFC42EBF9131
:10040000AF914F914FBF4F9118954F935F9341E03C
:10041000423039F050E85E60452F35D344D30C9418
:10042000160250EC5E60452F2ED33DD35F914F9165
:10043000602FEFD34F935F9342E0423039F050E8A2
:100440005A60452F20D32FD30C942B0250EC5A60C6
:10045000452F19D328D35F914F91612FDAD34ED412
:100460002A2D2A3231F44F934D2D4064D42E4F91D2
:10047000D2D044D34F934D2D417041304F9109F468
:1004800041C0AFD310E040910002403079F01091AC
:100490000102011769F44F934D2D4160D42E4F9105
:1004A0004F934D2D4860D42E4F912CC00C940502D3
:1004B0000CF034F44F934D2D4260D42E4F9106C072
:1004C0004F934D2D4D7FD42E4F9100C080910D0242
:1004D00090910E02843193054CF330920D023092CC
:1004E0000E024F934D2D427042304F9109F005C0DE
:1004F0004AE00413039575D388CF41E004130A95AD
:1005000070D383CF4F934D2D487048304F9169F091
:100510004F934D2D447044304F9159F14F934D2DD1
:10052000407140314F9109F173C0BCD34F934AE2FF
:1005300040939A00442740939B004F9180910D0275
:1005400090910E028A3093050CF45FCF30920D0229
:1005500030920E024F934D2D477FD42E4F914F93E3
:100560004D2D4460D42E4F9150CF0C94DF020C944B
:1005700005024F9340E040939A00442740939B002C
:100580004F9180910D0290910E028CD34F934D2D7F
:10059000407840384F9159F38E3193050CF435CFA4
:1005A00030920D0230920E024F934D2D4B7FD42E80
:1005B0004F914F934D2D4061D42E4F9126CF72D342
:1005C0004F934AE840939A00442740939B004F91F1
:1005D00080910D0290910E028A3093050CF415CF94
:1005E00030920D0230920E024F934D2D4F7ED42E3D
:1005F0004F914F934D2D4E7FD42E4F914F9340E00E
:1006000040939A00442740939B004F91BAD3FDCE6C
:100610004CEC48B9FDCF4F934FB74F9340910B022D
:100620004F9340910C024F9340910D024F93409194
:100630000E024F93EF920F938F939F9341E023D23B
:1006400032D230920D0230920E024F9345E422D204
:100650002AD24F914F934DE61DD225D24F914F9301
:1006600045E618D220D24F914F9342E713D21BD2C6
:100670004F914F9347E60ED216D24F914F9345E6D6
:1006800009D211D24F914F934EE604D20CD24F9122
:100690004F9343E6FFD107D24F914F9349E7FAD1E9
:1006A00002D24F914F935F9342E0423039F050E8CD
:1006B0005060452FE8D1F7D10C94630350EC5060A3
:1006C000452FE1D1F0D15F914F914F9343E4E2D1B7
:1006D000EAD14F914F9341E6DDD1E5D14F914F9350
:1006E0004CE6D8D1E0D14F914F934CE6D3D1DBD13A
:1006F0004F914F9340E2CED1D6D14F914F9340E3EB
:10070000C9D1D1D14F914F9340E3C4D1CCD14F91B6
:100710004F9340E3BFD1C7D14F91119AE02EE0D261
:1007200060D2013069F080910D0290910E02682F25
:100730008431ACF30A9530920D0230920E02EFCF65
:10074000CFD2B0D2DBD24AE2A41629F44F934D2D7A
:100750004F7BD42E4F914F934AE240939A00442707
:1007600040939B004F9180910D0290910E028A3030
:100770000CF4E6CF30920D0230920E02B1D292D23A
:10078000BDD24AE2A41659F444BA4F934D2D4F7B83
:10079000D42E4F9130920D0230920E0213C04F931F
:1007A00040E040939A00442740939B004F918091F2
:1007B0000D0290910E0286340CF4E0CF30920D02BF
:1007C00030920E028DD26ED299D24AE2A41631F442
:1007D00044BA4F934D2D4F7BD42E4F914F934AE8FF
:1007E00040939A00442740939B004F9180910D02C3
:1007F00090910E028A300CF4E5CF30920D023092C7
:100800000E024F9340E040939A00442740939B0090
:100810004F914F934D2D407440344F9119F04394B4
:1008200044BA4A945DD2DDD169D24AE2A41629F4D1
:100830004F934D2D4F7BD42E4F914F934D2D4074A0
:1008400040344F9109F4EECF30920D0230920E02F7
:1008500041E019D128D14F9342E51CD124D14F91C9
:100860004F9345E417D11FD14F914F9344E512D1D7
:100870001AD14F914F9345E50DD115D14F914F931B
:1008800042E508D110D14F914F934EE403D10BD1E3
:100890004F914F9349E4FED006D14F914F934EE4D0
:1008A000F9D001D14F914F9347E4F4D0FCD04F9150
:1008B0004F935F9342E0423039F050E85060452F4B
:1008C000E2D0F1D00C94690450EC5060452FDBD09D
:1008D000EAD05F914F914F9344E5DCD0E4D04F9143
:1008E0004F934FE4D7D0DFD04F914F9340E2D2D017
:1008F000DAD04F914F9346E4CDD0D5D04F914F935E
:100900004CE4C8D0D0D04F914F934FE4C3D0CBD05C
:100910004F914F934FE4BED0C6D04F914F9342E5D5
:10092000B9D0C1D04F914F9340E2B4D0BCD04F91D9
:100930006E2D6FD1119855D10E1561F080910D0279
:1009400090910E028431BCF3039530920D023092E7
:100950000E02F1CF41E097D0A6D04F9343E49AD056
:10096000A2D04F914F9345E795D09DD04F914F9393
:1009700042E790D098D04F914F9342E78BD093D0DD
:100980004F914F9345E686D08ED04F914F934EE6D0
:1009900081D089D04F914F9344E77CD084D04F9140
:1009A0004F9340E277D07FD04F914F9346E672D07D
:1009B0007AD04F914F934CE66DD075D04F914F93B5
:1009C0004FE668D070D04F914F934FE663D06BD015
:1009D0004F914F9342E75ED066D04F9111984F935D
:1009E0005F9342E0423039F050E85060452F4BD0E1
:1009F0005AD00C94000550EC5060452F44D053D091
:100A00005F914F914F934EE445D04DD04F914F930E
:100A100045E640D048D04F914F9348E73BD043D074
:100A20004F914F9344E736D03ED04F914F9340E2E1
:100A300031D039D04F914F9343E72CD034D04F91E0
:100A40004F9344E727D02FD04F914F934FE622D0BA
:100A50002AD04F914F9340E71DD025D04F919F91C1
:100A60008F910F91EF904F9140930E024F914093D1
:100A70000D024F9140930C024F9140930B024F9106
:100A80004FBF4F91089541BB1FD0169A1DD01698A5
:100A90001BD0089541BB179A17D0169A15D01698F7
:100AA00013D0179808950F93002700BB01BB159A28
:100AB0000BD0169A09D00FB1169807FDF9CF1598EB
:100AC0000FEF00BB0F9108958F939F9390E084E206
:100AD0000197F1F79F918F910895F6DFF5DFF4DF2D
:100AE000F3DFF2DF0895F9DFF8DFF7DFF6DFF5DF98
:100AF000F4DFF3DFF2DFF1DFF0DF18955F935FB72C
:100B00005F937F920F931F932F933F934F936F9316
:100B10006F937F93AF93BF93A1E0B2E06091000227
:100B2000AA242B3014F00C94E005213014F40C941A
:100B3000E005772460910002021711F40C94E0059F
:100B4000A22E4F934D2D427042304F9109F018C0A4
:100B500020175CF0761659F14C91241781F040F182
:100B6000401730F111967394F5CF761601F14C9140
:100B7000241731F1401720F011967394F6CF20C05E
:100B800002175CF0761699F04C914217C9F080F08C
:100B9000041770F011967394F5CF761641F04C91CE
:100BA000421771F00417A0F211967394F6CF00C0AB
:100BB0006395671529F04C912D93242F7394F9CFE9
:100BC00060930002BF91AF917F916F916F914F91B0
:100BD0003F912F911F910F917F905F915FBF5F9128
:100BE00008950F937F92AF93BF937724AA27BB27D3
:100BF000701641F0AA0FA39508F002C0BB0FB39581
:100C00007394F6CFB4BBA8B9BF91AF917F900F9109
:100C100008957F928F929F920F931F932F933F93EC
:100C20004F936F937F938F939F93EF93FF937727C8
:100C3000E0E6F0E040E38824992452E0951619F1AB
:100C400000C00591159180E090E0003041F0601700
:100C5000710720F0601B710B0196F7CF9B01B90162
:100C600093948030742E780E4F93472D13DF1BDF43
:100C70004F918394E2CF831401F34F9340E30ADF53
:100C800012DF4F91DACFFF91EF919F918F917F917A
:100C90006F914F913F912F911F910F919F908F9046
:100CA0007F9008954F934FB74F930F934F934D2DD0
:100CB000407240324F9109F007C093DF4F934D2DA2
:100CC0004F7DD42E4F9107C00A958BDF4F934D2D4A
:100CD0004062D42E4F910F914F914FBF4F91089585
:100CE0004F934FB74F93541409F002C0119A02C0AA
:100CF000119800C04F914FBF4F9108950F931F93CC
:100D00002F933F934F935F936F937F933FEE112702
:100D1000AA24143069F130930B014FEF4A95F1F793
:100D2000609109016F706F3059F021E000270430A5
:100D300039F0562F522341F00395220F0C94970659
:100D4000330F13950C948906133091F0033039F06A
:100D5000602F660F600F610F6F5F0C94B706103045
:100D600029F011306AE019F00C94B8066AE2A62E58
:100D70007F916F915F914F913F912F911F910F91B3
:100D80000895EF93FF934F935F936F937F937F92B9
:100D9000E1E0F2E040910002E40FF31D3197772487
:100DA000662740910002741631F070816083672FCE
:100DB00073943197F6CF409100024A954093000218
:100DC0007F907F916F915F914F91FF91EF91089587
:00000001FF
