:020000020000FC
:0C0000000C9437000C94A2000C94BB0080
:10005C000C94D200030206001027E80364000A0087
:10006C0001004FEF4DBF41E24EBF31E004E03324BD
:10007C00442443943092000240EF5FE040930A0125
:10008C0040930B0100004FEF47B943BB4AB945E51C
:10009C0050E048B954BB4AE0409369004DB341600D
:1000AC0042604DBB40E044BD42E045BD41E0409361
:1000BC006E004FEF40BB41B9442741BB42B948E306
:1000CC00DFD0EED005D148E3DBD0EAD0FAD048E35C
:1000DC00D7D0E6D048E3D4D0E3D048E0D1D0E0D0BC
:1000EC0041E0CED0DDD046E0CBD0DAD04EE0C8D067
:1000FC00D7D058E44F93452FCAD0D2D04F9155E664
:10010C004F93452FC4D0CCD04F915CE64F93452FE5
:10011C00BED0C6D04F914F93452FB9D0C1D04F917F
:10012C005FE64F93452FB3D0BBD04F9141E0A8D0A1
:10013C00B7D078940C940001432F4170413089F46E
:10014C00432F4870483069F050910F02503049F4F9
:10015C0054E650930F02CC27DD27C0931102D093A5
:10016C0012025F915FBF5F9118955F935FB75F93CA
:10017C00432F4170413061F450911002503041F4E2
:10018C0054E6509310026E96C0931102D093120253
:10019C005F915FBF5F9118954FB74F939F938F936C
:1001AC0080910B0290910C0201968D3043E09407E4
:1001BC00C1F480910D0290910E0240910F024A956C
:1001CC0040930F02409110024A9540931002019601
:1001DC0080930D0290930E0230920B0230920C021F
:1001EC0004C080930B0290930C029F918F914F91BE
:1001FC004FBF18957724E0E6F0E055E0751621F036
:10020C0025916CD07394FACFE1E0F2E07724309230
:10021C000D0230920E024F934AE239D041D04F91E9
:10022C0060910002D7D04F934AE231D039D04F9130
:10023C0042E0423039F050E85060452F21D030D0A8
:10024C000C942D0150EC5060452F1AD029D0562F0C
:10025C007516A9F00191602FBDD0A4D04091000279
:10026C004A954093000230920D0230920E0280911A
:10027C000D0290910E028431D4F37394E9CFFFCF29
:10028C0041BB1FD0169A1DD016981BD0089541BBA8
:10029C00179A17D0169A15D0169813D01798089548
:1002AC000F93002700BB01BB159A0BD0169A09D0EF
:1002BC000FB1169807FDF9CF15980FEF00BB0F91F2
:1002CC0008958F939F939FE08CE99F918F91089550
:1002DC00F8DFF7DFF6DFF5DFF4DF08955F935FB744
:1002EC005F937F922F934F936F93AF93BF93A1E044
:1002FC00B2E0772460910002021711F40C94CC0147
:10030C00432F4270423009F018C020175CF076166B
:10031C0059F14C91241781F040F1401730F11196AE
:10032C007394F5CF761601F14C91241779F140179F
:10033C0020F011967394F6CF29C002175CF0761654
:10034C0099F04C91421711F180F0041770F011964E
:10035C007394F5CF761641F04C914217B9F004170F
:10036C00A0F211967394F6CF00C063954F934CE7AF
:10037C008EDF96DF4F916F93672D2CD06F916715A1
:10038C0029F04C912D93242F7394F9CF6093000294
:10039C00BF91AF916F914F912F917F905F915FBF04
:1003AC005F910895AF93BF930F937F927724AA2701
:1003BC00BB27701641F0AA0FA39508F002C0BB0F23
:1003CC00B3957394F6CFB4BBA8B9BF91AF917F909E
:1003DC000F9108957F928F929F920F931F932F935B
:1003EC003F934F936F937F938F939F93EF93FF93D1
:1003FC007727E4E6F0E040E38824992455E095164D
:10040C0021F100C00591159180E090E0003041F0A1
:10041C006017710720F0601B710B0196F7CF9B01E1
:10042C00B9019394803049F0742E780E4F93472D78
:10043C002EDF36DF4F918394E1CF8314F9F24F9383
:10044C0040E325DF2DDF4F91D9CFFF91EF919F91A5
:10045C008F917F916F914F913F912F911F910F91A0
:10046C009F908F907F9008954F935F9340911302CC
:10047C0050911402432F4072403209F003C092DFB6
:10048C003F7D05C00F930A958DDF0F9130625F9110
:10049C004F9108954F93AF934A2F479508F010F45E
:1004AC00119A02C0119800C0AF914F9108950F930B
:1004BC001F932F933F934F935F936F937F933FEED5
:1004CC0011271430C9F130930B014FEF4A95F1F716
:1004DC00609109016F706F3059F021E000270430F2
:1004EC0039F0562F522341F00395220F0C947502CC
:1004FC00330F13950C9467021330F1F0033039F07D
:10050C00602F660F600F610F6F5F0C9495021030B7
:10051C0029F011306AE019F00C94A2020DC04F932F
:10052C0048E2B5DEBDDE4F9155DF4F9349E2AFDEB9
:10053C00B7DE4F91262FD2DE7F916F915F914F9155
:0A054C003F912F911F910F91089528
:00000001FF
