:020000020000FC
:0C0000000C9432000C9457010C945F012A
:04005C000C94790186
:040050000C949F016C
:100060000A0001004FEF4DBF41E24EBF4F934D2DAF
:100070004E7FD42E4F914F934D2D4260D42E4F91F1
:100080004F934D2D4B7FD42E4F914F934D2D477F46
:10009000D42E4F914F934D2D4F7ED42E4F914F9391
:1000A0004D2D4F7DD42E4F914F934D2D4F7BD42E00
:1000B0004F914F934D2D4F77D42E4F9101E0332424
:1000C000442443945524AA244FEFB42EC42E3092D6
:1000D000000240EF5FE040930A0140930B010000F3
:1000E0004FEF47B943BB44274AB940E14DB94AE213
:1000F000409369004DB34160426044604DBB40E0B5
:1001000044BD42E045BD41E040936E0040E0409375
:10011000800042E04093810041E240936F0041E063
:100120004093910041E2409390004FEF40BB41B9B2
:10013000442741BB42B948E38CD29BD2B4D248E3B6
:1001400088D297D2A7D248E384D293D248E381D20F
:1001500090D248E07ED28DD241E07BD28AD246E076
:1001600078D287D24EE075D284D2119A41E071D212
:1001700080D24F9343E474D27CD24F914F9345E7A2
:100180006FD277D24F914F9342E76AD272D24F919A
:100190004F9342E765D26DD24F914F9345E660D2BF
:1001A00068D24F914F934EE65BD263D24F914F93FB
:1001B00044E756D25ED24F914F9340E251D259D28A
:1001C0004F914F9346E64CD254D24F914F934CE609
:1001D00047D24FD24F914F934FE642D24AD24F91DE
:1001E0004F934FE63DD245D24F914F9342E738D2DD
:1001F00040D24F9111984F935F9342E0423039F0D3
:1002000050E85060452F25D234D20C940C0150ECAC
:100210005060452F1ED22DD25F914F914F934EE4E7
:100220001FD227D24F914F9345E61AD222D24F9137
:100230004F9348E715D21DD24F914F9344E710D208
:1002400018D24F914F9340E20BD213D24F914F935C
:1002500043E706D20ED24F914F9344E701D209D221
:100260004F914F934FE6FCD104D24F914F9340E70B
:10027000F7D1FFD14F914F935F9342E0423039F075
:1002800050E85D60452FE5D1F4D10C944C0150EC61
:100290005D60452FDED1EDD15F914F914F9343E5E6
:1002A000DFD1E7D14F9183D278940C9416024F930B
:1002B0004D2D447044304F9109F4BB2418954F9351
:1002C0004D2D407140314F9169F04F934D2D447049
:1002D00044304F9149F04F934D2D407840384F9125
:1002E00029F006C0CC2404C0CC2402C0CC2400C019
:1002F00018954F934FB74F939F938F9380910B0215
:1003000090910C0201968D3043E0940771F4809136
:100310000D0290910E02019680930D0290930E02B1
:1003200030920B0230920C0204C080930B02909327
:100330000C029F918F914F914FBF4F9118954F9302
:100340004FB74F93AF93BF934FEFB416D9F043E03D
:10035000B41614F4B39416C04F934D2D447044302A
:100360004F9171F44F934D2D4B7FD42E4F914F935E
:100370004D2D4061D42E4F9130920D0230920E02DD
:100380004FEFB42E4FEFC41609F44AC043E0C41631
:1003900014F4C39445C04F934D2D407140314F919B
:1003A00069F04F934D2D407840384F91F9F04F93BD
:1003B0004D2D447044304F9181F02FC04F934D2DFF
:1003C0004F7ED42E4F914F934D2D4860D42E4F9198
:1003D00030920D0230920E0220C04F934D2D406896
:1003E000D42E4F914EE24093690017C04F934D2D8C
:1003F0004F77D42E4F914F934D2D4B7FD42E4F914D
:1004000044BA4F934D2D4061D42E4F914AE2409310
:10041000690030920D0230920E0211984FEFC42EF7
:10042000BF91AF914F914FBF4F9118954F935F93ED
:1004300041E0423039F050E85E60452F0AD119D1D1
:100440000C94270250EC5E60452F03D112D15F91CE
:100450004F91602FC4D14F935F9342E0423039F007
:1004600050E85A60452FF5D004D10C943C0250EC72
:100470005A60452FEED0FDD05F914F91612FAFD1E3
:100480004F935F9342E0423039F050E85E60452F71
:10049000E0D0EFD00C94510250EC5E60452FD9D0E3
:1004A000E8D05F914F9160910D02669566956695D3
:1004B00096D10CD22A2D08D14F934D2D4170413049
:1004C0004F9109F440C073D110E0409100024030D8
:1004D00079F010910102011769F44F934D2D41609D
:1004E000D42E4F914F934D2D4860D42E4F912BC059
:1004F0000C9416020CF034F44F934D2D4260D42E20
:100500004F9106C04F934D2D4D7FD42E4F9100C07B
:1005100080910D0290910E02843154F330920D02BD
:1005200030920E024F934D2D427042304F9109F0A0
:1005300005C04AE0041303953AD178CF41E0041393
:100540000A9535D173CF4F934D2D487048304F9158
:1005500069F04F934D2D447044304F9151F14F93BA
:100560004D2D407140314F9101F170C081D14F93B9
:100570004AE240939A00442740939B004F91809118
:100580000D0290910E028A300CF450CF30920D0281
:1005900030920E024F934D2D477FD42E4F914F93A3
:1005A0004D2D4460D42E4F9141CF0C94FE020C94FB
:1005B00016024F9340E040939A00442740939B00DB
:1005C0004F9180910D0290910E0252D14F934D2D7B
:1005D000407840384F9159F38E310CF427CF309248
:1005E0000D0230920E024F934D2D4B7FD42E4F9122
:1005F0004F934D2D4061D42E4F9118CF39D14F9349
:100600004AE840939A00442740939B004F91809181
:100610000D0290910E028A300CF408CF30920D0238
:1006200030920E024F934D2D4F7ED42E4F914F930B
:100630004D2D4E7FD42E4F914F9340E040939A0022
:10064000442740939B004F9184D1F0CE4CEC48B9A5
:10065000FDCF41BB1FD0169A1DD016981BD0089510
:1006600041BB179A17D0169A15D0169813D0179821
:1006700008950F93002700BB01BB159A0BD0169A63
:1006800009D00FB1169807FDF9CF15980FEF00BBF1
:100690000F9108958F939F9390E084E20197F1F773
:1006A0009F918F910895F6DFF5DFF4DFF3DFF2DF3E
:1006B0000895F9DFF8DFF7DFF6DFF5DFF4DFF3DFCA
:1006C000F2DFF1DFF0DF18955F935FB75F937F9202
:1006D0000F931F932F933F934F936F936F937F933A
:1006E000AF93BF93A1E0B2E060910002AA242B3047
:1006F00014F00C94C603213014F40C94C603772430
:1007000060910002021711F40C94C603A22E4F93BD
:100710004D2D427042304F9109F018C020175CF007
:10072000761659F14C91241781F040F1401730F1C1
:1007300011967394F5CF761601F14C91241731F18F
:10074000401720F011967394F6CF20C002175CF08A
:10075000761699F04C914217C9F080F0041770F0AA
:1007600011967394F5CF761641F04C91421771F0C3
:100770000417A0F211967394F6CF00C06395671525
:1007800029F04C912D93242F7394F9CF609300029C
:10079000BF91AF917F916F916F914F913F912F9149
:1007A0001F910F917F905F915FBF5F9108950F93AD
:1007B0007F92AF93BF937724AA27BB27701641F08F
:1007C000AA0FA39508F002C0BB0FB3957394F6CFA0
:1007D000B4BBA8B9BF91AF917F900F9108957F925C
:1007E0008F929F920F931F932F933F934F936F93EB
:1007F0007F938F939F93EF93FF937727E0E6F0E04B
:1008000040E38824992452E0951619F100C005911F
:10081000159180E090E0003041F06017710720F002
:10082000601B710B0196F7CF9B01B9019394803047
:10083000742E780E4F93472D13DF1BDF4F91839457
:10084000E2CF831401F34F9340E30ADF12DF4F91AD
:10085000DACFFF91EF919F918F917F916F914F919F
:100860003F912F911F910F919F908F907F900895AE
:100870004F934FB74F930F934F934D2D407240328C
:100880004F9109F007C093DF4F934D2D4F7DD42E2C
:100890004F9107C00A958BDF4F934D2D4062D42EA8
:1008A0004F910F914F914FBF4F9108954F934FB775
:1008B0004F936F93679508F010F4119A02C0119846
:1008C00000C06F914F914FBF4F9108950F931F93A9
:1008D0002F933F934F935F936F937F933FEE112737
:1008E000AA24143069F130930B014FEF4A95F1F7C8
:1008F000609109016F706F3059F021E000270430DA
:1009000039F0562F522341F00395220F0C947F04A7
:10091000330F13950C947104133091F0033039F0B8
:10092000602F660F600F610F6F5F0C949F04103093
:1009300029F011306AE019F00C94A00401C0A62E31
:100940007F916F915F914F913F912F911F910F91E7
:100950000895EF93FF934F935F936F937F937F92ED
:10096000E1E0F2E040910002E40FF31D31977724BB
:10097000662740910002741631F070816083672F02
:1009800073943197F6CF409100024A95409300024C
:100990007F907F916F915F914F91FF91EF910895BB
:00000001FF
