:020000020000FC
:0C0000000C9438000C949A000C94B3008F
:10005C000C94CA000103050709001027E80364008B
:10006C000A0001004FEF4DBF41E24EBF3324442440
:10007C00439440EF40930A014FEF40930B0147B973
:10008C0043BB4AB945E551E348B954BB4AE04093F8
:10009C0069004DB3416042604DBB40E044BD42E05D
:1000AC0045BD41E040936E004FEF40BB41B9442742
:1000BC0041BB42B948E39AD0A9D0C2D048E396D00C
:1000CC00A5D0B5D048E392D0A1D048E38FD09ED034
:1000DC0048E08CD09BD041E089D098D046E086D0C7
:1000EC0095D04EE083D092D058E44F93452F85D0D5
:1000FC008DD04F9155E64F93452F7FD087D04F91A0
:10010C005CE64F93452F79D081D04F914F93452F7B
:10011C0074D07CD04F915FE64F93452F6ED076D044
:10012C004F9178940C94F800432F4170413089F42E
:10013C00432F4870483069F050910502503049F413
:10014C0054E650930502CC27DD27C0930702D093C9
:10015C0008025F915FBF5F9118955F935FB75F93E4
:10016C00432F4170413061F450910602503041F4FC
:10017C0054E6509306026E96C0930702D093080281
:10018C005F915FBF5F9118954FB74F939F938F937C
:10019C00809101029091020201968D3043E0940708
:1001AC00C1F48091030290910402409105024A959A
:1001BC0040930502409106024A954093060201962F
:1001CC008093030290930402309201023092020257
:1001DC0004C080930102909302029F918F914F91E2
:1001EC004FBF18956CE077279BD0FCCF41BB1FD03D
:1001FC00169A1DD016981BD0089541BB179A17D08C
:10020C00169A15D0169813D0179808950F930027A7
:10021C0000BB01BB159A0BD0169A09D00FB11698DA
:10022C0007FDF9CF15980FEF00BB0F9108958F9331
:10023C009F939FE08CE90197F1F79F918F9108951F
:10024C00F6DFF5DFF4DFF3DFF2DF08955F935FB7DE
:10025C005F937F922F934F936F93AF93BF937724BA
:10026C000217F1F160910002432F42704230C1F04D
:10027C0000C020175CF0761651F14C91141781F1E7
:10028C0038F1401728F111967394F5CF7616F9F0E2
:10029C004C91241729F1401718F011967394F6CF4E
:1002AC0002175CF0761699F04C914117C9F080F06A
:1002BC00041770F011967394F5CF761641F04C91AB
:1002CC00421771F00417A8F211967394F6CF00C080
:1002DC006395671529F02D93242F4C917394F9CFC6
:1002EC0060930002BF91AF916F914F912F917F90CE
:1002FC005F915FBF5F9108950F937F927724AA2738
:10030C00BB27701641F0AA0FA39508F002C0BB0FD3
:10031C00B3957394F6CFB4BBA8B97F900F910895A1
:10032C007F920F931F932F933F934F936F937F93D2
:10033C008F939F93EF93FF9342E0423039F050E854
:10034C005E60452F53DF62DF0C94B10150EC5E60B0
:10035C00452F4CDF5BDFE6E6F0E040E300C00591A3
:10036C00159180E090E0003041F06017710720F0AB
:10037C00601B710B0196F7CF9B01B901803039F0EE
:10038C00742E780E4F93472D38DF40DF4F9170302D
:10039C00603009F0E3CFFF91EF919F918F917F91A6
:1003AC006F914F913F912F911F910F917F900895D5
:1003BC004F935F934091090250910A02432F407270
:1003CC00403209F003C098DF3F7D05C00F930A95BA
:1003DC0093DF0F9130625F914F9108954F93AF93DC
:1003EC004A2F479508F010F4119A02C0119800C0DA
:1003FC00AF914F9108950F931F932F933F934F936A
:10040C005F936F937F933FEE1127143019F1309364
:10041C000B014FEF4A95F1F7609109016F706F3046
:10042C0059F021E00027043039F0562F522341F0C7
:10043C000395220F0C941902330F13950C940B0295
:10044C00133039F0033029F4103019F46AE20C94AB
:10045C0030026FEF762F7F916F915F914F913F91AB
:08046C002F911F910F910895DB
:00000001FF
