:020000020000FC
:0C0000000C9437000C94A6000C94BF0078
:10005C000C94D600030206001027E80364000A0083
:10006C0001004FEF4DBF41E24EBF33273D7F06E00D
:10007C00332444244394AA24BB243092000240EF3E
:10008C005FE040930A0140930B0100004FEF47B92A
:10009C0043BB44274AB945E550E048B954BB4AE054
:1000AC00409369004DB3416042604DBB40E044BD9C
:1000BC0042E045BD41E040936E004FEF40BB41B97B
:1000CC00442741BB42B948E3ABD0BAD0D3D048E3C4
:1000DC00A7D0B6D0C6D048E3A3D0B2D048E3A0D0C6
:1000EC00AFD048E09DD0ACD041E09AD0A9D046E04A
:1000FC0097D0A6D04EE094D0A3D058E44F93452F80
:10010C0096D09ED04F9155E64F93452F90D098D0D6
:10011C004F915CE64F93452F8AD092D04F914F93DD
:10012C00452F85D08DD04F915FE64F93452F7FD0D3
:10013C0087D04F9141E074D083D078940C94040113
:10014C00432F4170413089F4432F4870483069F097
:10015C0050910F02503049F454E650930F02CC27C3
:10016C00DD27C0931102D09312025F915FBF5F91A4
:10017C0018955F935FB75F93432F4170413061F4E3
:10018C0050911002503041F454E6509310026E9688
:10019C00C0931102D09312025F915FBF5F911895CB
:1001AC004FB74F939F938F9380910B0290910C02BA
:1001BC0001968D3043E09407C1F480910D0290912B
:1001CC000E0240910F024A9540930F02409110028B
:1001DC004A9540931002019680930D0290930E0263
:1001EC0030920B0230920C0204C080930B0290935D
:1001FC000C029F918F914F914FBF189535D16A2D5D
:10020C00C6D02A2D3DD0409100024030B9F3E1E038
:10021C00F2E00081A4D04A9540930002EFCFFFCFCB
:10022C0041BB1FD0169A1DD016981BD0089541BB08
:10023C00179A17D0169A15D0169813D017980895A8
:10024C000F93002700BB01BB159A0BD0169A09D04F
:10025C000FB1169807FDF9CF15980FEF00BB0F9152
:10026C0008958F939F939FE08CE90197F1F79F91ED
:10027C008F910895F6DFF5DFF4DFF3DFF2DF0895F9
:10028C005F935FB75F937F920F931F932F933F936F
:10029C004F936F936F937F93AF93BF93A1E0B2E0B3
:1002AC00609100022B3014F00C94A401213014F452
:1002BC000C94A401772460910002021711F40C94A1
:1002CC00A401432F4270423009F018C020175CF093
:1002DC00761659F14C91241781F040F1401730F10A
:1002EC0011967394F5CF761601F14C91241731F1D8
:1002FC00401720F011967394F6CF20C002175CF0D3
:10030C00761699F04C914217C9F080F0041770F0F2
:10031C0011967394F5CF761641F04C91421771F00B
:10032C000417A0F211967394F6CF00C0639567156D
:10033C0029F04C912D93242F7394F9CF60930002E4
:10034C00BF91AF917F916F916F914F913F912F9191
:10035C001F910F917F905F915FBF5F9108950F93F5
:10036C007F92AF93BF937724AA27BB27701641F0D7
:10037C00AA0FA39508F002C0BB0FB3957394F6CFE8
:10038C00B4BBA8B9BF91AF917F900F9108957F92A4
:10039C008F929F920F931F932F933F934F936F9333
:1003AC007F938F939F93EF93FF937727E4E6F0E08F
:1003BC0040E38824992455E0951621F100C005915D
:1003CC00159180E090E0003041F06017710720F04B
:1003DC00601B710B0196F7CF9B01B9019394803090
:1003EC0049F0742E780E4F93472D21DF29DF4F9162
:1003FC008394E1CF8314F9F24F9340E318DF20DFAD
:10040C004F91D9CFFF91EF919F918F917F916F91E8
:10041C004F913F912F911F910F919F908F907F90B3
:10042C0008954F935F934091130250911402432F00
:10043C004072403209F003C092DF3F7D05C00F933C
:10044C000A958DDF0F9130625F914F9108954F9314
:10045C00AF934A2F479508F010F4119A02C01198E7
:10046C0000C0AF914F9108950F931F932F933F931B
:10047C004F935F936F937F933FEE1127AA24143011
:10048C0091F130930B014FEF4A95F1F7609109010F
:10049C006F706F3059F021E00027043039F0562F7F
:1004AC00522341F00395220F0C945302330F1395F2
:1004BC000C9445024F9348E4BADEC2DE4F911330E0
:1004CC0091F0033039F0602F660F600F610F6F5F92
:1004DC000C947802103029F011306AE019F00C9469
:1004EC00790201C0A62E7F916F915F914F913F9140
:0804FC002F911F910F9108954B
:00000001FF
