:020000020000FC
:0C0000000C9435000C947F000C949800C8
:10005C000C94AF001027E80364000A0001004FEF76
:10006C004DBF41E24EBF33E003E0332444244394BC
:10007C003092000240EF5FE040930A0140930B0185
:10008C0000004FEF47B943BB4AB945E550E048B9CA
:10009C0054BB4AE0409369004DB3416042604DBB94
:1000AC0040E044BD42E045BD41E040936E004FEF5F
:1000BC0040BB41B9442741BB42B948E39ED0ADD0C7
:1000CC00C6D048E39AD0A9D0B9D048E396D0A5D0F1
:1000DC0048E393D0A2D048E090D09FD041E08DD09F
:1000EC009CD046E08AD099D04EE087D096D00C9424
:1000FC00DD00432F4170413089F4432F4870483064
:10010C0069F050910F02503049F454E650930F02AD
:10011C00CC27DD27C0931102D09312025F915FBFF1
:10012C005F9118955F935FB75F93432F4170413098
:10013C0061F450911002503041F454E65093100287
:10014C006E96C0931102D09312025F915FBF5F91C4
:10015C0018954FB74F939F938F9380910B0290916B
:10016C000C0201968D3043E09407C1F480910D028E
:10017C0090910E0240910F024A9540930F024091CC
:10018C0010024A9540931002019680930D029093B1
:10019C000E0230920B0230920C0204C080930B02C0
:1001AC0090930C029F918F914F914FBF189535D121
:1001BC0040910002433009F0FACFE1E0F2E07724FD
:1001CC0030920D0230920E0243E07416A9F00191A8
:1001DC00602FBAD0A1D0409100024A954093000202
:1001EC0030920D0230920E0280910D0290910E020F
:1001FC008431D4F37394E8CFFFCF41BB1FD0169A50
:10020C001DD016981BD0089541BB179A17D0169A7B
:10021C0015D0169813D0179808950F93002700BB8C
:10022C0001BB159A0BD0169A09D00FB1169807FD81
:10023C00F9CF15980FEF00BB0F9108958F939F93F3
:10024C009FE08CE90197F1F79F918F910895F6DF6C
:10025C00F5DFF4DFF3DFF2DF08955F935FB75F93B1
:10026C007F922F934F936F93AF93BF93A1E0B2E024
:10027C007724021711F40C948601609100022A3045
:10028C0029F0432F42704230D9F003C04FEF48B9E8
:10029C00F8CF20175CF0761651F14C91241781F1B0
:1002AC0038F1401728F111967394F5CF7616F9F0C2
:1002BC004C91241729F1401718F011967394F6CF2E
:1002CC0002175CF0761699F04C914217C9F080F049
:1002DC00041770F011967394F5CF761641F04C918B
:1002EC00421771F00417A8F211967394F6CF00C060
:1002FC006395671529F02D93242F4C917394F9CFA6
:10030C0060930002BF91AF916F914F912F917F90AD
:10031C005F915FBF5F910895AF93BF930F937F92EF
:10032C007724AA27BB27701641F0AA0FA39508F0D3
:10033C0002C0BB0FB3957394F6CFB4BBA8B9BF91F1
:10034C00AF917F900F9108957F920F931F932F93EE
:10035C003F934F936F937F938F939F93EF93FF9361
:10036C007727E0E6F0E040E38824992455E09516E1
:10037C0021F100C00591159180E090E0003041F032
:10038C006017710720F0601B710B0196F7CF9B0172
:10039C00B9019394803049F0742E780E4F93472D09
:1003AC0033DF3BDF4F918394E1CF8314F9F24F930A
:1003BC0040E32ADF32DF4F91D9CFFF91EF919F912C
:1003CC008F917F916F914F913F912F911F910F9131
:1003DC007F9008954F935F934091130250911402B4
:1003EC00432F4072403209F003C096DF3F7D05C0B9
:1003FC000F930A9591DF0F9130625F914F910895A1
:10040C004F93AF934A2F479508F010F4119A02C0FE
:10041C00119800C0AF914F9108950F931F932F9394
:10042C003F934F935F936F937F933FEE112714305D
:10043C0071F130930B014FEF4A95F1F7609109017F
:10044C006F706F3059F021E00027043039F0562FCF
:10045C00522341F00395220F0C942B02330F13956A
:10046C000C941D02133099F0033039F0602F660F95
:10047C00600F610F6F5F0C944B02103029F011303C
:10048C006AE019F00C944D0202C0262FE6DE7F9133
:10049C006F915F914F913F912F911F910F91089503
:00000001FF
