:020000020000FC
:0C0000000C9432000C942A010C9447016F
:10005C000C9460010A0001004FEF4DBF41E24EBF0E
:10006C003E7F32603B7F377F3F7E3F7D3F7B3F77DC
:10007C0001E0332444244394AA24BB24309200028C
:10008C0040EF5FE040930A0140930B0100004FEFFB
:10009C0047B943BB44274AB940E14DB94AE24093C2
:1000AC0069004DB34160426044604DBB40E044BDCB
:1000BC0042E045BD41E040936E0041E04093910029
:1000CC0041E2409390004FEF40BB41B9442741BB04
:1000DC0042B948B848E3F2D101D21AD248E3EED182
:1000EC00FDD10DD248E3EAD1F9D148E3E7D1F6D1FD
:1000FC0048E0E4D1F3D141E0E1D1F0D146E0DED1EA
:10010C00EDD14EE0DBD1EAD141E0D8D1E7D14F932C
:10011C0043E4DBD1E3D14F914F9345E7D6D1DED108
:10012C004F914F9342E7D1D1D9D14F914F9342E7A1
:10013C00CCD1D4D14F914F9345E6C7D1CFD14F916C
:10014C004F934EE6C2D1CAD14F914F9344E7BDD1E4
:10015C00C5D14F914F9340E2B8D1C0D14F914F933D
:10016C0046E6B3D1BBD14F914F934CE6AED1B6D14D
:10017C004F914F934FE6A9D1B1D14F914F934FE689
:10018C00A4D1ACD14F914F9342E79FD1A7D14F91BE
:10019C004F935F9342E0423039F050E85060452F66
:1001AC008DD19CD10C94DF0050EC5060452F86D142
:1001BC0095D15F914F914F934EE487D18FD14F9151
:1001CC004F9345E682D18AD14F914F9348E77DD129
:1001DC0085D14F914F9344E778D180D14F914F9374
:1001EC0040E273D17BD14F914F9343E76ED176D1DF
:1001FC004F914F9344E769D171D14F914F934FE693
:10020C0064D16CD14F914F9340E75FD167D14F913F
:10021C004F935F9342E0423039F050E85D60452FD8
:10022C004DD15CD10C941F0150EC5D60452F46D133
:10023C0055D15F914F914F9341E547D14FD14F919C
:10024C00EBD178940C9486014F93432F417041303D
:10025C004F9199F44F93432F487048304F9169F068
:10026C0050910F02503049F454E650930F02CC27B2
:10027C00DD27C0931102D09312025F915FBF5F9193
:10028C0018955F935FB75F934F93432F4170413045
:10029C004F9161F450911002503041F454E6509358
:1002AC0010026E96C0931102D09312025F915FBF41
:1002BC005F9118954F934FB74F939F938F93809166
:1002CC000B0290910C0201968D3043E0940771F46F
:1002DC0080910D0290910E02019680930D029093E5
:1002EC000E0230920B0230920C0204C080930B026F
:1002FC0090930C029F918F914F914FBF4F911895F6
:10030C004F935F9341E0423039F050E85E60452FE7
:10031C00D5D0E4D00C94970150EC5E60452FCED034
:10032C00DDD05F914F91602F8FD14F935F9342E05F
:10033C00423039F050E85A60452FC0D0CFD00C94E1
:10034C00AC0150EC5A60452FB9D0C8D05F914F9199
:10035C00612F7AD14F935F9342E0423039F050E8ED
:10036C005F60452FABD0BAD00C94C10150EC5F60EC
:10037C00452FA4D0B3D05F914F916091000264D10E
:10038C00CFD12A2DD6D04F93432F417041304F916E
:10039C0009F42FC010E040910002403039F0109168
:1003AC000102011729F43160386023C00C948601D6
:1003BC000CF014F4326002C03D7F00C080910D023D
:1003CC0090910E02843194F330920D0230920E0211
:1003DC004F93432F427042304F9109F005C04AE0D1
:1003EC000413039519D18CCF41E004130A9514D151
:1003FC0087CF4F93432F487048304F9169F04F93FC
:10040C00432F447044304F91F1F04F93432F407180
:10041C0040314F9181F14FC0FFD04F934AE240934E
:10042C009A00442740939B004F9180910D0290912C
:10043C000E028A300CF464CF30920D0230920E0210
:10044C00377F34605DCF4F9340E040939A00442750
:10045C0040939B004F9180910D0290910E02682F5A
:10046C003CD18E310CF44CCF30920D0230920E02F6
:10047C003B7F306145CFD0D04F934AE840939A00F0
:10048C00442740939B004F9180910D0290910E0256
:10049C008A300CF435CF30920D0230920E023F7E32
:1004AC003E7F4F9340E040939A00442740939B003B
:1004BC004F9179D125CF4CEC48B9FDCF41BB1FD022
:1004CC00169A1DD016981BD0089541BB179A17D0B9
:1004DC00169A15D0169813D0179808950F930027D5
:1004EC0000BB01BB159A0BD0169A09D00FB1169808
:1004FC0007FDF9CF15980FEF00BB0F9108958F935F
:10050C009F939BE084EB0197F1F79F918F91089556
:10051C00F6DFF5DFF4DFF3DFF2DF0895F9DFF8DF64
:10052C00F7DFF6DFF5DFF4DFF3DFF2DFF1DFF0DF2B
:10053C0018955F935FB75F937F920F931F932F93E1
:10054C003F934F936F936F937F93AF93BF93A1E0C0
:10055C00B2E060910002AA242B3014F00C94010339
:10056C00213014F40C9401037724609100020217DB
:10057C0011F40C940103A22E4F93432F427042307E
:10058C004F9109F018C020175CF0761659F14C9178
:10059C00241781F040F1401730F111967394F5CF88
:1005AC00761601F14C91241731F1401720F0119679
:1005BC007394F6CF20C002175CF0761699F04C912C
:1005CC004217C9F080F0041770F011967394F5CFB0
:1005DC00761641F04C91421771F00417A0F2119667
:1005EC007394F6CF00C06395671529F04C912D9349
:1005FC00242F7394F9CF60930002BF91AF917F9138
:10060C006F916F914F913F912F911F910F917F900F
:10061C005F915FBF5F9108950F937F92AF93BF93EC
:10062C007724AA27BB27701641F0AA0FA39508F0D0
:10063C0002C0BB0FB3957394F6CFB4BBA8B9BF91EE
:10064C00AF917F900F9108957F928F929F920F930D
:10065C001F932F933F934F936F937F938F939F93FE
:10066C00EF93FF937727E0E6F0E040E388249924AA
:10067C0052E0951619F100C00591159180E090E0BB
:10068C00003041F06017710720F0601B710B019670
:10069C00F7CF9B01B90193948030742E780E4F9351
:1006AC00472D13DF1BDF4F918394E2CF831401F3AB
:1006BC004F9340E30ADF12DF4F91DACFFF91EF91B6
:1006CC009F918F917F916F914F913F912F911F919E
:1006DC000F919F908F907F9008954F934FB74F93AA
:1006EC000F936F93679508F010F496DF03C00A958B
:1006FC0093DF00C06F910F914F914FBF4F910895B1
:10070C004F934FB74F936F93679508F010F4119A6E
:10071C0002C0119800C06F914F914FBF4F91089537
:10072C000F931F932F933F934F935F936F937F93ED
:10073C003FEE1127AA24143069F130930B014FEFCF
:10074C004A95F1F7609109016F706F3059F021E013
:10075C000027043039F0562F522341F00395220F15
:10076C000C94AF03330F13950C94A103133091F039
:10077C00033039F0602F660F600F610F6F5F0C94C0
:10078C00CF03103029F011306AE019F00C94D0032B
:10079C0001C0A62E7F916F915F914F913F912F9148
:1007AC001F910F910895EF93FF934F935F936F9366
:1007BC007F937F92E1E0F2E040910002E40FF31DA1
:1007CC0031977724662740910002741631F07081BE
:1007DC006083672F73943197F6CF409100024A954E
:1007EC00409300027F907F916F915F914F91FF91A9
:0407FC00EF910895DC
:00000001FF
