:020000020000FC
:0C0000000C9432000C9457010C945F012A
:04005C000C94790186
:040050000C949F016C
:100060000A0001004FEF4DBF41E24EBF4F934D2DAF
:100070004E7FD42E4F914F934D2D4260D42E4F91F1
:100080004F934D2D4B7FD42E4F914F934D2D477F46
:10009000D42E4F914F934D2D4F7ED42E4F914F9391
:1000A0004D2D4F7DD42E4F914F934D2D4F7BD42E00
:1000B0004F914F934D2D4F77D42E4F9101E0332424
:1000C000442443945524AA244FEFB42EC42E3092D6
:1000D000000240EF5FE040930A0140930B010000F3
:1000E0004FEF47B943BB44274AB940E14DB94AE213
:1000F000409369004DB34160426044604DBB40E0B5
:1001000044BD42E045BD41E040936E0040E0409375
:10011000800042E04093810041E240936F0041E063
:100120004093910041E2409390004FEF40BB41B9B2
:10013000442741BB42B948E360D46FD488D448E334
:100140005CD46BD47BD448E358D467D448E355D40B
:1001500064D448E052D461D441E04FD45ED446E048
:100160004CD45BD44EE049D458D4119A41E045D4E4
:1001700054D44F9343E448D450D44F914F9345E720
:1001800043D44BD44F914F9342E73ED446D44F9142
:100190004F9342E739D441D44F914F9345E634D43D
:1001A0003CD44F914F934EE62FD437D44F914F9379
:1001B00044E72AD432D44F914F9340E225D42DD432
:1001C0004F914F9346E620D428D44F914F934CE65D
:1001D0001BD423D44F914F934FE616D41ED44F9186
:1001E0004F934FE611D419D44F914F9342E70CD45B
:1001F00014D44F9111984F935F9342E0423039F0FD
:1002000050E85060452FF9D308D40C940C0150EC01
:100210005060452FF2D301D45F914F914F934EE43C
:10022000F3D3FBD34F914F9345E6EED3F6D34F91E3
:100230004F9348E7E9D3F1D34F914F9344E7E4D389
:10024000ECD34F914F9340E2DFD3E7D34F914F93DD
:1002500043E7DAD3E2D34F914F9344E7D5D3DDD3CD
:100260004F914F934FE6D0D3D8D34F914F9340E760
:10027000CBD3D3D34F914F935F9342E0423039F0C9
:1002800050E85D60452FB9D3C8D30C944C0150ECB5
:100290005D60452FB2D3C1D35F914F914F9343E53A
:1002A000B3D3BBD34F9157D478940C9416024F9389
:1002B0004D2D447044304F9109F4BB2418954F9351
:1002C0004D2D407140314F9169F04F934D2D447049
:1002D00044304F9149F04F934D2D407840384F9125
:1002E00029F006C0CC2404C0CC2402C0CC2400C019
:1002F00018954F934FB74F939F938F9380910B0215
:1003000090910C0201968D3043E0940771F4809136
:100310000D0290910E02019680930D0290930E02B1
:1003200030920B0230920C0204C080930B02909327
:100330000C029F918F914F914FBF4F9118954F9302
:100340004FB74F93AF93BF934FEFB416D9F043E03D
:10035000B41614F4B39416C04F934D2D447044302A
:100360004F9171F44F934D2D4B7FD42E4F914F935E
:100370004D2D4061D42E4F9130920D0230920E02DD
:100380004FEFB42E4FEFC41609F44AC043E0C41631
:1003900014F4C39445C04F934D2D407140314F919B
:1003A00069F04F934D2D407840384F91F9F04F93BD
:1003B0004D2D447044304F9181F02FC04F934D2DFF
:1003C0004F7ED42E4F914F934D2D4860D42E4F9198
:1003D00030920D0230920E0220C04F934D2D406896
:1003E000D42E4F914EE24093690017C04F934D2D8C
:1003F0004F77D42E4F914F934D2D4B7FD42E4F914D
:1004000044BA4F934D2D4061D42E4F914AE2409310
:10041000690030920D0230920E0211984FEFC42EF7
:10042000BF91AF914F914FBF4F9118954F935F93ED
:1004300041E0423039F050E85E60452FDED2EDD227
:100440000C94270250EC5E60452FD7D2E6D25F9124
:100450004F91602F98D34F935F9342E0423039F031
:1004600050E85A60452FC9D2D8D20C943C0250ECC7
:100470005A60452FC2D2D1D25F914F91612F83D361
:100480004F935F9342E0423039F050E85E60452F71
:10049000B4D2C3D20C94510250EC5E60452FADD261
:1004A000BCD25F914F9160910D02669566956695FD
:1004B0006AD3E0D32A2D2A3209F4CED0D9D24F9371
:1004C0004D2D417041304F9109F440C044D310E0AC
:1004D00040910002403079F010910102011769F457
:1004E0004F934D2D4160D42E4F914F934D2D486029
:1004F000D42E4F912BC00C9416020CF034F44F9371
:100500004D2D4260D42E4F9106C04F934D2D4D7FFF
:10051000D42E4F9100C080910D0290910E02843133
:1005200054F330920D0230920E024F934D2D4270D3
:1005300042304F9109F005C04AE0041303950BD3F4
:1005400075CF41E004130A9506D370CF4F934D2D1C
:10055000487048304F9169F04F934D2D44704430AE
:100560004F9151F14F934D2D407140314F9101F119
:1005700070C052D34F934AE240939A00442740936D
:100580009B004F9180910D0290910E028A300CF4E5
:100590004DCF30920D0230920E024F934D2D477F7A
:1005A000D42E4F914F934D2D4460D42E4F913ECF7A
:1005B0000C9401030C9416024F9340E040939A0070
:1005C000442740939B004F9180910D0290910E0221
:1005D00023D34F934D2D407840384F9159F38E31AE
:1005E0000CF424CF30920D0230920E024F934D2D19
:1005F0004B7FD42E4F914F934D2D4061D42E4F9170
:1006000015CF0AD34F934AE840939A00442740936A
:100610009B004F9180910D0290910E028A300CF454
:1006200005CF30920D0230920E024F934D2D4F7E2A
:10063000D42E4F914F934D2D4E7FD42E4F914F93EB
:1006400040E040939A00442740939B004F9155D33C
:10065000EDCE4CEC48B9FDCF4F934FB74F9340913F
:100660000B024F9340910C024F9340910D024F9318
:1006700040910E024F93EF920F938F939F9341E01F
:10068000BCD1CBD130920D0230920E024F9345E493
:10069000BBD1C3D14F914F934DE6B6D1BED14F914F
:1006A0004F9345E6B1D1B9D14F914F9342E7ACD1C9
:1006B000B4D14F914F9347E6A7D1AFD14F914F930C
:1006C00045E6A2D1AAD14F914F934EE69DD1A5D137
:1006D0004F914F9343E698D1A0D14F914F9349E763
:1006E00093D19BD14F914F935F9342E0423039F0C9
:1006F00050E85060452F81D190D10C94840350EC88
:100700005060452F7AD189D15F914F914F9343E447
:100710007BD183D14F914F9341E676D17ED14F91DA
:100720004F934CE671D179D14F914F934CE66CD1F8
:1007300074D14F914F9340E267D16FD14F914F9356
:1007400040E362D16AD14F914F9340E35DD165D1CF
:100750004F914F9340E358D160D14F91119AE02EC1
:1007600079D2F9D1013069F080910D0290910E0299
:10077000682F8431ACF30A9530920D0230920E024C
:10078000EFCF68D249D276D24AE2A41629F44F9329
:100790004D2D4F7BD42E4F914F934AE240939A00B8
:1007A000442740939B004F9180910D0290910E023F
:1007B0008A300CF4E6CF30920D0230920E024AD20B
:1007C0002BD258D24AE2A41651F44F934D2D4F7BB1
:1007D000D42E4F9130920D0230920E0213C04F93DF
:1007E00040E040939A00442740939B004F918091B2
:1007F0000D0290910E028E310CF4E1CF30920D0279
:1008000030920E0227D208D235D24AE2A41629F439
:100810004F934D2D4F7BD42E4F914F934AE44093ED
:100820009A00442740939B004F9180910D02909134
:100830000E028A300CF4E6CF30920D0230920E0296
:100840004F9340E040939A00442740939B004F9180
:1008500001D281D10FD24AE2A41629F44F934D2D33
:100860004F7BD42E4F914F934D2D407440344F9178
:1008700079F330920D0230920E026DD10E1561F0B7
:1008800080910D0290910E028431BCF30395309259
:100890000D0230920E02F1CF41E0AFD0BED04F93A7
:1008A00043E4B2D0BAD04F914F9345E7ADD0B5D025
:1008B0004F914F9342E7A8D0B0D04F914F9342E76A
:1008C000A3D0ABD04F914F9345E69ED0A6D04F9189
:1008D0004F934EE699D0A1D04F914F9344E794D0D7
:1008E0009CD04F914F9340E28FD097D04F914F9330
:1008F00046E68AD092D04F914F934CE685D08DD06A
:100900004F914F934FE680D088D04F914F934FE651
:100910007BD083D04F914F9342E776D07ED04F91DA
:1009200011984F935F9342E0423039F050E85060A5
:10093000452F63D072D00C94A20450EC5060452F28
:100940005CD06BD05F914F914F934EE45DD065D0FA
:100950004F914F9345E658D060D04F914F9348E761
:1009600053D05BD04F914F9344E74ED056D04F9128
:100970004F9340E249D051D04F914F9343E744D039
:100980004CD04F914F9344E73FD047D04F914F9376
:100990004FE63AD042D04F914F9340E735D03DD00B
:1009A0004F914F935F9342E0423039F050E85D60E1
:1009B000452F23D032D00C94E20450EC5D60452FDB
:1009C0001CD02BD05F914F914F9343E51DD025D084
:1009D0004F919F918F910F91EF904F9140930E0205
:1009E0004F9140930D024F9140930C024F914093D1
:1009F0000B024F914FBF4F91089541BB1FD0169AE4
:100A00001DD016981BD0089541BB179A17D0169A7F
:100A100015D0169813D0179808950F93002700BB90
:100A200001BB159A0BD0169A09D00FB1169807FD85
:100A3000F9CF15980FEF00BB0F9108958F939F93F7
:100A400090E084E20197F1F79F918F910895F6DF8E
:100A5000F5DFF4DFF3DFF2DF0895F9DFF8DFF7DF2A
:100A6000F6DFF5DFF4DFF3DFF2DFF1DFF0DF18951B
:100A70005F935FB75F937F920F931F932F933F9383
:100A80004F936F936F937F93AF93BF93A1E0B2E0C7
:100A900060910002AA242B3014F00C949A052130A6
:100AA00014F40C949A05772460910002021711F453
:100AB0000C949A05A22E4F934D2D427042304F91C7
:100AC00009F018C020175CF0761659F14C912417E4
:100AD00081F040F1401730F111967394F5CF7616FE
:100AE00001F14C91241731F1401720F011967394C5
:100AF000F6CF20C002175CF0761699F04C914217A1
:100B0000C9F080F0041770F011967394F5CF761643
:100B100041F04C91421771F00417A0F211967394B2
:100B2000F6CF00C06395671529F04C912D93242FC3
:100B30007394F9CF60930002BF91AF917F916F9151
:100B40006F914F913F912F911F910F917F905F91E6
:100B50005FBF5F9108950F937F92AF93BF93772408
:100B6000AA27BB27701641F0AA0FA39508F002C070
:100B7000BB0FB3957394F6CFB4BBA8B9BF91AF9137
:100B80007F900F9108957F928F929F920F931F9362
:100B90002F933F934F936F937F938F939F93EF93F5
:100BA000FF937727E0E6F0E040E38824992452E0C1
:100BB000951619F100C00591159180E090E0003084
:100BC00041F06017710720F0601B710B0196F7CFA1
:100BD0009B01B90193948030742E780E4F93472D6A
:100BE00013DF1BDF4F918394E2CF831401F34F9304
:100BF00040E30ADF12DF4F91DACFFF91EF919F912F
:100C00008F917F916F914F913F912F911F910F91F4
:100C10009F908F907F9008954F934FB74F930F936E
:100C20004F934D2D407240324F9109F007C093DF32
:100C30004F934D2D4F7DD42E4F9107C00A958BDFDA
:100C40004F934D2D4062D42E4F910F914F914FBF36
:100C50004F9108954F934FB74F93541409F003C029
:100C6000119A5A9403C01098539400C04F914FBFEB
:100C70004F9108950F931F932F933F934F935F933B
:100C80006F937F933FEE1127AA24143069F13093BC
:100C90000B014FEF4A95F1F7609109016F706F30CA
:100CA00059F021E00027043039F0562F522341F04B
:100CB0000395220F0C945306330F13950C9445069D
:100CC000133091F0033039F0602F660F600F610F21
:100CD0006F5F0C947306103029F011306AE019F040
:100CE0000C9474066AE2A62E7F916F915F914F91EA
:100CF0003F912F911F910F910895EF93FF934F9381
:100D00005F936F937F937F92E1E0F2E04091000266
:100D1000E40FF31D31977724662740910002741683
:100D200031F070816083672F73943197F6CF4091D3
:100D300000024A95409300027F907F916F915F91EE
:080D40004F91FF91EF9108951E
:00000001FF
