:020000020000FC
:0C0000000C9433000C94AB000C94C50071
:10005C000C94E2000103050709000FEF0DBF01E24C
:10006C000EBF3324442443940FEF07B903BB00277E
:10007C000AB915E521E318B924BB50EF50930A01D6
:10008C005FEF57B958B953BB54BB50BB51B9552747
:10009C0051BB52B90AE0009369000DB301600260D4
:1000AC000DBB50E054BD52E055BD51E050936E0075
:1000BC000FEF00BB01B9002701BB02B908E36BD1FC
:1000CC007AD193D108E367D176D186D108E363D195
:1000DC0072D108E360D16FD108E05DD16CD101E041
:1000EC005AD169D106E057D166D10EE054D163D113
:1000FC0010E3012F57D15FD115E6012F53D15BD1FE
:10010C001CE6012F4FD157D1012F4CD154D11FE6F2
:10011C00012F48D150D11AE0012F44D14CD110E31A
:10012C00012F40D148D115E6012F3CD144D11CE61A
:10013C00012F38D140D1012F35D13DD11FE6012FF0
:10014C0031D139D178940C940A015F935FB75F93E6
:10015C008F939F9350910402513049F08091020289
:10016C00909105029F5F981714F4CC27DD2780939C
:10017C0005029F918F915F915FBF5F9118955F937F
:10018C005FB75F938F939F9350910402513061F04E
:10019C0080910202909106029E5F98172CF46E9645
:1001AC0055E4052FFFD007D1809306029F918F91C4
:1001BC005F915FBF5F9118955FB75F93DF93CF93AC
:1001CC009F938F93809100029091010201968D3044
:1001DC0053E0950771F4809102029091030201960D
:1001EC00809302029093030230920002309201023B
:1001FC0004C080930002909301028F919F91CF9144
:10020C00DF915F915FBF189541E0E0E6F0E08491EB
:10021C0071E0A7D021E0332751E050930402C2E3F0
:10022C00D0E001E0B8D0C7D0542F505D052FBAD024
:10023C00C2D08F933FEE1127143031F330930B0162
:10024C005FEF5A95F1F7809109018F708F3059F05B
:10025C0021E00027043039F0682F622341F0039528
:10026C00220F0C943001330F13950C942201133090
:10027C0039F0033029F4103019F48AE20C94470158
:10028C008FEF8A3259F502E0023039F060E8606095
:10029C00062F81D090D00C94580160EC6060062F32
:1002AC007AD089D005E47ED086D00DE67BD083D081
:1002BC0005E678D080D002E775D07DD007E672D005
:1002CC007AD005E66FD077D00EE66CD074D003E60A
:1002DC0069D071D009E766D06ED08F91A0910202DF
:1002EC00B0910302481719F0A431C4F318C0552774
:1002FC0050930402A217B30749F44F9351E04512EF
:10030C00415041942ED04F912F5F3F4FAC17BD07FA
:10031C002CF3482F3196849151E050930402309283
:10032C00020230920302C2E3D0E021E030E041301F
:10033C0039F04A3039F084172CF048170CF003C010
:10034C0071E001C07FEFAA27BB27470F01E023D044
:10035C0032D0542F505D052F25D02DD002D0BECFDA
:10036C00FFCF4F930F930027AA27BB27041741F009
:10037C00AA0FA39508F002C0BB0FB3950395F6CF57
:10038C00B4BBA8B90F914F9108954F939927942F0F
:10039C00905D4F91089501BB1FD0169A1DD01698F1
:1003AC001BD0089501BB179A17D0169A15D0169822
:1003BC0013D0179808950F93002700BB01BB159A13
:1003CC000BD0169A09D00FB1169807FDF9CF1598D6
:1003DC000FEF00BB0F9108958F939F939FE08CE9D3
:1003EC000197F1F79F918F910895F6DFF5DFF4DF18
:0603FC00F3DFF2DF0895BB
:00000001FF
