:020000020000FC
:0200000032C00C
:10005C000C944F000407090201000FEF0DBF01E2E1
:10006C000EBF33240FEF07B903BB15E521E318B915
:10007C0024BB02E0009369000DB301600DBB00E0EE
:10008C0004BD02E005BD01E000936E0078940C9471
:10009C0077000FB70F93DF93CF939F938F9380913C
:1000AC00000290910102019684380EE1900771F4E0
:1000BC008091020290910302019680930202909328
:1000CC000302309200023092010204C080930002BD
:1000DC00909301029F918F91CF91DF910F910FBF60
:1000EC00189541E051E01CD0E0E6F0E0649180917D
:1000FC000202461719F08230C9F703C08530B1F7F8
:10010C00319630920202309203024A3011F45FEFC2
:10011C0003C0413009F451E0450F02D0E7CFFFCFC7
:10012C00CF93DF934F93FF92AF93BF93FF24AA27F4
:10013C00BB27F41641F0AA0FA39508F002C0BB0F21
:10014C00B395F394F6CFB4BBA8B9BF91AF91FF9020
:0A015C004F91DF91CF910895FFCF7E
:00000001FF
