:020000020000FC
:0200000032C00C
:10005C000C9451000407090201000FEF0DBF01E2DF
:10006C000EBF3324442443940FEF07B903BB15E5AB
:10007C0021E318B924BB02E0009369000DB30160C1
:10008C000DBB00E004BD02E005BD01E000936E0075
:10009C0078940C9479000FB70F93DF93CF939F93C1
:1000AC008F9380910002909101020196883C00E0B0
:1000BC00900771F480910202909103020196809353
:1000CC00020290930302309200023092010204C0AB
:1000DC0080930002909301029F918F91CF91DF91B9
:1000EC000F910FBF189541E0E0E6F0E0649151E00C
:1000FC002ED021E05030B1F080910202461719F059
:10010C008431C1F70FC0821741F44F9301E04012C4
:10011C00415041941CD04F912F5F823359F7462F99
:10012C0031966491309202023092030221E0413008
:10013C0039F04A3039F064172CF046170CF003C034
:10014C0051E001C05FEF450F02D0D4CFFFCFCF936A
:10015C00DF934F93FF92AF93BF93FF24AA27BB2744
:10016C00F41641F0AA0FA39508F002C0BB0FB3958B
:10017C00F394F6CFB4BBA8B9BF91AF91FF904F9158
:08018C00DF91CF910895FFCF30
:00000001FF
