:020000020000FC
:100000000C9402004FEF4DBF41E24EBF40EF4093D2
:100010000A014FEF47B948B943BB44BB40BB41B9A4
:10002000442741BB42B908E3B5D0C4D0DDD008E3D2
:10003000B1D0C0D0D0D008E3ADD0BCD008E3AAD0B6
:10004000B9D008E0A7D0B6D001E0A4D0B3D006E084
:10005000A1D0B0D00EE09ED0ADD002E0023039F099
:1000600050E85060052F96D0A5D00C943C0050EC81
:100070005060052F8FD09ED006E493D09BD00CE625
:1000800090D098D00FE68DD095D00FE68AD092D040
:1000900002E787D08FD000E284D08CD002E581D0F7
:1000A00089D005E67ED086D001E77BD083D005E7F6
:1000B00078D080D005E675D07DD003E772D07AD0B5
:1000C00004E76FD077D03FEE1127143031F2309330
:1000D0000B014FEF4A95F1F7609109016F706F3096
:1000E00059F021E00027043039F0562F522341F017
:1000F0000395220F0C947300330F13950C94650035
:10010000133071F0033039F0602F660F600F610F0C
:100110006F5F0C949100113019F46AE00C94910017
:100120006FEF6A30F1F466D061E001E033D042D085
:1001300002E0023039F050E85E60052F2BD03AD053
:100140000C94A70050EC5E60052F24D033D066D00D
:10015000092F27D02FD060E061D0092F22D02AD0DC
:1001600017C048D001E016D025D002E0023039F0A7
:1001700050E85E60052F0ED01DD00C94C40050ECEA
:100180005E60052F07D016D049D0092F0AD012D0B3
:100190000C942D0001BB1FD0169A1DD016981BD0B1
:1001A000089501BB179A17D0169A15D0169813D038
:1001B000179808950F93002700BB01BB159A0BD029
:1001C000169A09D00FB1169807FDF9CF15980FEFC1
:1001D00000BB0F9108958F939F939FE08CE9019747
:1001E000F1F79F918F910895F6DFF5DFF4DFF3DFEC
:1001F000F2DF08956F93FF92FF24AA27BB27F6161C
:1002000041F0AA0FA39508F002C0BB0FB395F39479
:10021000F6CFB4BBA8B9FF906F9108956F9399275B
:08022000962F905D6F91089587
:00000001FF
