:020000020000FC
:100000000CC0010002000500070008000C001400ED
:10001000000001000A0019000600CEEFD1E2CDBFBA
:10002000DEBF002711270983E2E0F0E0073031F05E
:1000300014913296A0E0B3E00ED0F8CFE0E1F0E00A
:100040004427453039F015913196A0E0B3E003D054
:100050004395F7CFFFCFCF93DF931F93CDB7DEB795
:1000600021972497CDBFDEBFF983EA830B831C83DE
:100070002227201739F03C91131761F018F01196E0
:100080002395F7CF0395201729F01D93132F3C914B
:100090002395F9CF2596DEBFCDBF1F91DF91CF917C
:0200A0000895C1
:00000001FF
