:020000020000FC
:100000000C9402000FEF0DBF01E20EBF0FEF00BB1B
:1000100001B9002701BB02B908E343D052D06BD02D
:1000200008E33FD04ED05ED008E33BD04AD008E38F
:1000300038D047D008E035D044D001E032D041D0AC
:1000400006E02FD03ED00EE02CD03BD010E3012FA5
:100050002FD037D015E6012F2BD033D01CE6012F3F
:1000600027D02FD0012F24D02CD01FE6012F20D055
:1000700028D01AE0012F1CD024D010E3012F18D073
:1000800020D015E6012F14D01CD01CE6012F10D073
:1000900018D0012F0DD015D01FE6012F09D011D097
:1000A000FFCF01BB1FD0169A1DD016981BD0089504
:1000B00001BB179A17D0169A15D0169813D0179817
:1000C00008950F93002700BB01BB159A0BD0169A19
:1000D00009D00FB1169807FDF9CF15980FEF00BBA7
:1000E0000F9108958F939F939FE08CE90197F1F70B
:1000F0009F918F910895F6DFF5DFF4DFF3DFF2DFF4
:02010000089560
:00000001FF
